M CARRION SAMANTHA         111 DUFF LANE                        ROCKY TOP      TN37769     8658093575          072889FB1811702612                                        415-69-4082CARTER ANN DEGROFF21                                                                                                                                      S   042718      I      B0000578315                                 AMERIGROUP TN      PO BOX 61010        VIRGINIA BEACH VA234661010 CARRION SAMANTHA                                                   721795048     TNBASI11              1 Y301064                                                                              0                                                                                                                4 Y                                                                                    0                                                                                                                4 Y                                                                                                                IPB
M REISS CHARLES ALLAN      P.O. BOX 5415         220 R.W. LONG LOAK RIDGE      TN37831     8654576364          110443MB1811700168                                        511-40-3704SIDDIQI SAADI A   21                                                                                                                                      M   042718042718E042718B0000612590                                HUMANA ADV          PO BOX 14601        LEXINGTON      KY405124601 REISS CHARLES A                                                    H54988988     W0622002              1 Y101011                                                                              0                                                                                                                4 Y                                                                                    0                                                                                                                4 Y                           220 R.W. LONG LN/ANDERSON                                                            EDB
M DIXON JEFFREY LEE        619 SMITH ROAD                       ONEIDA         TN37841     42321532004233461300110971MB1811700172            MORGAN CO CORRECTIONAL COMPL413-13-9947                  21                                                                                                                                      D   042718042718E      B0000697074                                 BLUE SELECT        1 CAMERON HILL CR   CHATTANOOGA    TN374020002 DIXON JEFFREY L                                                    STAS00468736  80860                 1 Y201035                                                                              0                                                                                                                4 Y                                                                                    0                                                                                                                4 Y                                                                                                                EDB
M GRIFFITH GAYLON          250 CARRIAGE VIEW                    CLINTON        TN37716     8652062963          053046MB1811603362                                        415-76-4713                  21                                                                                                                                      M   042618042718E      B0000002008                                 UHC MC 31362       PO BOX 31362        SALT LAKE CITY UT841310362 GRIFFITH GAYLON                                                    972282081     17000                 1 Y101009                                                                              0                                                                                                                4 Y                                                                                    0                                                                                                                4 Y                                                                                                                EDB
M SULLIVAN DONNA LEE       119 PARK LANE                        OAK RIDGE      TN37830     86543881548654813330061662FB1811703084            RED LOBSTER OAK RIDGE       004-62-5101GENT MATTHEW V    21                                                                                                                                      S   042718042818E      B0000331029                                 SELF PAY UNINSURED 1420 CENTERPOINT BLVKNOXVILLE      TN379321960 SULLIVAN DONNA LEE                                                 SELF PAY                            1 Y711003                                                                              0                                                                                                                4 Y                                                                                    0                                                                                                                4 Y                                                                                                                EDB
M PADGETT WILLIAM HOYT     204 E SHERIDAN PLACE                 OAK RIDGE      TN37830     8654831177          090526MB1811702943                                        413-36-1456BRIDGEMAN PAMELA A21                                                                                                                                      W   042718      I      B0000046424                                HUMANA ADV          PO BOX 14601        LEXINGTON      KY405124601 PADGETT WILLIAM H                                                  H55240402     W0622001              1 Y101011                                                                              0                                                                                                                4 Y                                                                                    0                                                                                                                4 Y                                                                                                                IPB
M THOMAS MARGIE L          PO BOX 101                           ANDERSONVILLE  TN37705     86549444148653356554012640FB1811703016                                        304-42-5652CONWAY SHERE HOWAL21                                                                                                                                      W   042818      I      B0000060627                                HUMANA ADV          PO BOX 14601        LEXINGTON      KY405124601 THOMAS MARGIE L                                                    H40339580     W0622002              1 Y101011                                                                              0                                                                                                                4 Y                                                                                    0                                                                                                                4 Y                                                                                                                IPB
M TROUPE CAROLYN           191 ROBERT FULLER RD                 OAK RIDGE      TN37830     8653145245          102049FB1811700004                                        587-28-8967LENOIR DANIEL R   21                                                                                                                                      S   042718042718E      B0000105793                                 HUMANA ADV         PO BOX 14601        LEXINGTON      KY405124601 TROUPE CAROLYN J                                                   H43346032     R5776001              1 Y101011                      MED QMB BLUECARE   PO BOX 480          NASHVILLE      TN372020480 TROUPE CAROLYN J                                                   587288967     =                     1 Y301074                                                                              0                                                                                                                4 Y                                                                                                                EDB
M MOORE ARTHUR LYNN        397 MARLOW RD                        CLINTON        TN37716     8658507517          052276MB1811603358                                        414-25-3543THAKUR SANJAY PRAK21                                                                                                                                      S   042618042718E      B0000044921                                UHC COMMUNITY PLAN  PO BOX 5220         KINGSTON       NY124025220 MOORE ARTHUR L                                                     107912624                           1 Y301060                                                                              0                                                                                                                4 Y                                                                                    0                                                                                                                4 Y                                                                                                                EDB
M KNOX MERCEDES LASHAY     PO BOX 1225           703 CATOOSA ROAWARTBURG       TN37887     8653331614          081498FB1811702993            SAVE A LOT                  410-85-1920ALLEN THOMAS      21                                                                                                                                      S   042718042718E042718B0000186887                                 UNITED HLTH 740800 PO BOX 740800       ATLANTA        GA303740800 PHILLIPS DOUGLAS                                                   936547801     2W4310                1 Y621023                      AMERIGROUP TN      PO BOX 61010        VIRGINIA BEACH VA234661010 KNOX MERCEDES L                                                    719607555                           1 Y301064                                                                              0                                                                                                                4 Y                           ANDERSON                                                                             EDB
M BARRS WILLIAM MARTIN     123 N SENECA ROAD                    OAK RIDGE      TN37830     9126617647          110355MB1811603410                                        266-29-7298                  21                                                                                                                                      M   042618042718E      B0000697070                                 BLUE PREFERRED     1 CAMERON HILL CR   CHATTANOOGA    TN374020002 BARRS WILLIAM M                                                    NGO033M85292  174022M1C4            1 Y201034                      CIGNA 182223       PO BOX 182223       CHATTANOOGA    TN374227223 BURGESS ELIZABETH                                                  U0287627502   2499601               2 Y521174                                                                              0                                                                                                                4 Y                                                                                                                EDB
